{
  "_format": "hh-sol-artifact-1",
  "contractName": "OnboardX",
  "sourceName": "contracts/OnboardX.sol",
  "abi": [
    {
      "inputs": [
        {
          "internalType": "address",
          "name": "_tokenAddress",
          "type": "address"
        }
      ],
      "stateMutability": "nonpayable",
      "type": "constructor"
    },
    {
      "inputs": [],
      "name": "confirmTaskCompletion",
      "outputs": [],
      "stateMutability": "nonpayable",
      "type": "function"
    },
    {
      "inputs": [],
      "name": "getAllCompaniesData",
      "outputs": [
        {
          "components": [
            {
              "internalType": "string",
              "name": "name",
              "type": "string"
            },
            {
              "internalType": "string",
              "name": "reg_no",
              "type": "string"
            },
            {
              "internalType": "bool",
              "name": "active",
              "type": "bool"
            }
          ],
          "internalType": "struct OnboardX.Company[]",
          "name": "companyDetails",
          "type": "tuple[]"
        }
      ],
      "stateMutability": "view",
      "type": "function"
    },
    {
      "inputs": [],
      "name": "getEmployee",
      "outputs": [
        {
          "components": [
            {
              "internalType": "string",
              "name": "name",
              "type": "string"
            },
            {
              "internalType": "string",
              "name": "role",
              "type": "string"
            },
            {
              "internalType": "uint256",
              "name": "payment",
              "type": "uint256"
            },
            {
              "internalType": "bool",
              "name": "active",
              "type": "bool"
            },
            {
              "internalType": "bool",
              "name": "confirmed",
              "type": "bool"
            },
            {
              "internalType": "bool",
              "name": "releaseFunds",
              "type": "bool"
            },
            {
              "internalType": "address",
              "name": "employeeAddress",
              "type": "address"
            },
            {
              "internalType": "enum OnboardX.EmploymentStatus",
              "name": "status",
              "type": "uint8"
            }
          ],
          "internalType": "struct OnboardX.Employee",
          "name": "employeeDetails",
          "type": "tuple"
        }
      ],
      "stateMutability": "view",
      "type": "function"
    },
    {
      "inputs": [],
      "name": "getEmployees",
      "outputs": [
        {
          "components": [
            {
              "internalType": "string",
              "name": "name",
              "type": "string"
            },
            {
              "internalType": "string",
              "name": "role",
              "type": "string"
            },
            {
              "internalType": "uint256",
              "name": "payment",
              "type": "uint256"
            },
            {
              "internalType": "bool",
              "name": "active",
              "type": "bool"
            },
            {
              "internalType": "bool",
              "name": "confirmed",
              "type": "bool"
            },
            {
              "internalType": "bool",
              "name": "releaseFunds",
              "type": "bool"
            },
            {
              "internalType": "address",
              "name": "employeeAddress",
              "type": "address"
            },
            {
              "internalType": "enum OnboardX.EmploymentStatus",
              "name": "status",
              "type": "uint8"
            }
          ],
          "internalType": "struct OnboardX.Employee[]",
          "name": "employeesDetails",
          "type": "tuple[]"
        }
      ],
      "stateMutability": "view",
      "type": "function"
    },
    {
      "inputs": [
        {
          "internalType": "string",
          "name": "name",
          "type": "string"
        },
        {
          "internalType": "string",
          "name": "role",
          "type": "string"
        },
        {
          "internalType": "uint256",
          "name": "payment",
          "type": "uint256"
        },
        {
          "internalType": "address",
          "name": "employeeAddress",
          "type": "address"
        },
        {
          "internalType": "enum OnboardX.EmploymentStatus",
          "name": "status",
          "type": "uint8"
        }
      ],
      "name": "onboardEmployee",
      "outputs": [],
      "stateMutability": "nonpayable",
      "type": "function"
    },
    {
      "inputs": [
        {
          "internalType": "string",
          "name": "name",
          "type": "string"
        },
        {
          "internalType": "string",
          "name": "reg_no",
          "type": "string"
        }
      ],
      "name": "registerCompany",
      "outputs": [],
      "stateMutability": "nonpayable",
      "type": "function"
    },
    {
      "inputs": [
        {
          "internalType": "address",
          "name": "_employee",
          "type": "address"
        }
      ],
      "name": "releaseFunds",
      "outputs": [],
      "stateMutability": "nonpayable",
      "type": "function"
    },
    {
      "inputs": [],
      "name": "requestPayment",
      "outputs": [],
      "stateMutability": "nonpayable",
      "type": "function"
    }
  ],
  "bytecode": "0x608060405234801561001057600080fd5b506040516123763803806123768339818101604052810190610032919061011c565b336000806101000a81548173ffffffffffffffffffffffffffffffffffffffff021916908373ffffffffffffffffffffffffffffffffffffffff16021790555080600160006101000a81548173ffffffffffffffffffffffffffffffffffffffff021916908373ffffffffffffffffffffffffffffffffffffffff16021790555050610149565b600080fd5b600073ffffffffffffffffffffffffffffffffffffffff82169050919050565b60006100e9826100be565b9050919050565b6100f9816100de565b811461010457600080fd5b50565b600081519050610116816100f0565b92915050565b600060208284031215610132576101316100b9565b5b600061014084828501610107565b91505092915050565b61221e806101586000396000f3fe608060405234801561001057600080fd5b50600436106100885760003560e01c806363a2af8b1161005b57806363a2af8b1461010357806363bdb94b1461011f57806374448ba414610129578063c63189e51461014557610088565b8063192e7a7b1461008d5780634132db8f146100a9578063481777ca146100c75780634abefa36146100e5575b600080fd5b6100a760048036038101906100a29190611460565b61014f565b005b6100b1610243565b6040516100be919061168e565b60405180910390f35b6100cf610541565b6040516100dc91906117c9565b60405180910390f35b6100ed6107cb565b6040516100fa9190611964565b60405180910390f35b61011d60048036038101906101189190611b0c565b610b0e565b005b610127610ee3565b005b610143600480360381019061013e9190611bbf565b611064565b005b61014d611288565b005b60011515600260003373ffffffffffffffffffffffffffffffffffffffff1673ffffffffffffffffffffffffffffffffffffffff16815260200190815260200160002060020160009054906101000a900460ff161515146101e5576040517f08c379a00000000000000000000000000000000000000000000000000000000081526004016101dc90611cba565b60405180910390fd5b6001600460008373ffffffffffffffffffffffffffffffffffffffff1673ffffffffffffffffffffffffffffffffffffffff16815260200190815260200160002060030160026101000a81548160ff02191690831515021790555050565b61024b61137b565b60011515600460003373ffffffffffffffffffffffffffffffffffffffff1673ffffffffffffffffffffffffffffffffffffffff16815260200190815260200160002060030160009054906101000a900460ff161515146102e1576040517f08c379a00000000000000000000000000000000000000000000000000000000081526004016102d890611d4c565b60405180910390fd5b600460003373ffffffffffffffffffffffffffffffffffffffff1673ffffffffffffffffffffffffffffffffffffffff1681526020019081526020016000206040518061010001604052908160008201805461033c90611d9b565b80601f016020809104026020016040519081016040528092919081815260200182805461036890611d9b565b80156103b55780601f1061038a576101008083540402835291602001916103b5565b820191906000526020600020905b81548152906001019060200180831161039857829003601f168201915b505050505081526020016001820180546103ce90611d9b565b80601f01602080910402602001604051908101604052809291908181526020018280546103fa90611d9b565b80156104475780601f1061041c57610100808354040283529160200191610447565b820191906000526020600020905b81548152906001019060200180831161042a57829003601f168201915b50505050508152602001600282015481526020016003820160009054906101000a900460ff161515151581526020016003820160019054906101000a900460ff161515151581526020016003820160029054906101000a900460ff161515151581526020016003820160039054906101000a900473ffffffffffffffffffffffffffffffffffffffff1673ffffffffffffffffffffffffffffffffffffffff1673ffffffffffffffffffffffffffffffffffffffff1681526020016003820160179054906101000a900460ff16600181111561052657610525611560565b5b600181111561053857610537611560565b5b81525050905090565b606060008054906101000a900473ffffffffffffffffffffffffffffffffffffffff1673ffffffffffffffffffffffffffffffffffffffff163373ffffffffffffffffffffffffffffffffffffffff16146105d1576040517f08c379a00000000000000000000000000000000000000000000000000000000081526004016105c890611e3e565b60405180910390fd5b600560008060009054906101000a900473ffffffffffffffffffffffffffffffffffffffff1673ffffffffffffffffffffffffffffffffffffffff1673ffffffffffffffffffffffffffffffffffffffff168152602001908152602001600020805480602002602001604051908101604052809291908181526020016000905b828210156107c2578382906000526020600020906003020160405180606001604052908160008201805461068490611d9b565b80601f01602080910402602001604051908101604052809291908181526020018280546106b090611d9b565b80156106fd5780601f106106d2576101008083540402835291602001916106fd565b820191906000526020600020905b8154815290600101906020018083116106e057829003601f168201915b5050505050815260200160018201805461071690611d9b565b80601f016020809104026020016040519081016040528092919081815260200182805461074290611d9b565b801561078f5780601f106107645761010080835404028352916020019161078f565b820191906000526020600020905b81548152906001019060200180831161077257829003601f168201915b505050505081526020016002820160009054906101000a900460ff16151515158152505081526020019060010190610651565b50505050905090565b606060011515600260003373ffffffffffffffffffffffffffffffffffffffff1673ffffffffffffffffffffffffffffffffffffffff16815260200190815260200160002060020160009054906101000a900460ff16151514610863576040517f08c379a000000000000000000000000000000000000000000000000000000000815260040161085a90611cba565b60405180910390fd5b600360003373ffffffffffffffffffffffffffffffffffffffff1673ffffffffffffffffffffffffffffffffffffffff168152602001908152602001600020805480602002602001604051908101604052809291908181526020016000905b82821015610b055783829060005260206000209060040201604051806101000160405290816000820180546108f690611d9b565b80601f016020809104026020016040519081016040528092919081815260200182805461092290611d9b565b801561096f5780601f106109445761010080835404028352916020019161096f565b820191906000526020600020905b81548152906001019060200180831161095257829003601f168201915b5050505050815260200160018201805461098890611d9b565b80601f01602080910402602001604051908101604052809291908181526020018280546109b490611d9b565b8015610a015780601f106109d657610100808354040283529160200191610a01565b820191906000526020600020905b8154815290600101906020018083116109e457829003601f168201915b50505050508152602001600282015481526020016003820160009054906101000a900460ff161515151581526020016003820160019054906101000a900460ff161515151581526020016003820160029054906101000a900460ff161515151581526020016003820160039054906101000a900473ffffffffffffffffffffffffffffffffffffffff1673ffffffffffffffffffffffffffffffffffffffff1673ffffffffffffffffffffffffffffffffffffffff1681526020016003820160179054906101000a900460ff166001811115610ae057610adf611560565b5b6001811115610af257610af1611560565b5b81525050815260200190600101906108c2565b50505050905090565b60011515600260003373ffffffffffffffffffffffffffffffffffffffff1673ffffffffffffffffffffffffffffffffffffffff16815260200190815260200160002060020160009054906101000a900460ff16151514610ba4576040517f08c379a0000000000000000000000000000000000000000000000000000000008152600401610b9b90611cba565b60405180910390fd5b60006040518061010001604052808781526020018681526020018581526020016001151581526020016000151581526020016000151581526020018473ffffffffffffffffffffffffffffffffffffffff168152602001836001811115610c0e57610c0d611560565b5b8152509050600360003373ffffffffffffffffffffffffffffffffffffffff1673ffffffffffffffffffffffffffffffffffffffff1681526020019081526020016000208190806001815401808255809150506001900390600052602060002090600402016000909190919091506000820151816000019081610c91919061200a565b506020820151816001019081610ca7919061200a565b506040820151816002015560608201518160030160006101000a81548160ff02191690831515021790555060808201518160030160016101000a81548160ff02191690831515021790555060a08201518160030160026101000a81548160ff02191690831515021790555060c08201518160030160036101000a81548173ffffffffffffffffffffffffffffffffffffffff021916908373ffffffffffffffffffffffffffffffffffffffff16021790555060e08201518160030160176101000a81548160ff02191690836001811115610d8457610d83611560565b5b0217905550505080600460008573ffffffffffffffffffffffffffffffffffffffff1673ffffffffffffffffffffffffffffffffffffffff1681526020019081526020016000206000820151816000019081610de0919061200a565b506020820151816001019081610df6919061200a565b506040820151816002015560608201518160030160006101000a81548160ff02191690831515021790555060808201518160030160016101000a81548160ff02191690831515021790555060a08201518160030160026101000a81548160ff02191690831515021790555060c08201518160030160036101000a81548173ffffffffffffffffffffffffffffffffffffffff021916908373ffffffffffffffffffffffffffffffffffffffff16021790555060e08201518160030160176101000a81548160ff02191690836001811115610ed357610ed2611560565b5b0217905550905050505050505050565b60011515600460003373ffffffffffffffffffffffffffffffffffffffff1673ffffffffffffffffffffffffffffffffffffffff16815260200190815260200160002060030160009054906101000a900460ff16151514610f79576040517f08c379a0000000000000000000000000000000000000000000000000000000008152600401610f7090611d4c565b60405180910390fd5b6000600460003373ffffffffffffffffffffffffffffffffffffffff1673ffffffffffffffffffffffffffffffffffffffff168152602001908152602001600020600201549050600160009054906101000a900473ffffffffffffffffffffffffffffffffffffffff1673ffffffffffffffffffffffffffffffffffffffff1663a9059cbb33836040518363ffffffff1660e01b815260040161101d9291906120fa565b6020604051808303816000875af115801561103c573d6000803e3d6000fd5b505050506040513d601f19601f82011682018060405250810190611060919061214f565b5050565b60011515600260003373ffffffffffffffffffffffffffffffffffffffff1673ffffffffffffffffffffffffffffffffffffffff16815260200190815260200160002060020160009054906101000a900460ff161515036110fa576040517f08c379a00000000000000000000000000000000000000000000000000000000081526004016110f1906121c8565b60405180910390fd5b6000604051806060016040528084815260200183815260200160011515815250905080600260003373ffffffffffffffffffffffffffffffffffffffff1673ffffffffffffffffffffffffffffffffffffffff1681526020019081526020016000206000820151816000019081611171919061200a565b506020820151816001019081611187919061200a565b5060408201518160020160006101000a81548160ff021916908315150217905550905050600560008060009054906101000a900473ffffffffffffffffffffffffffffffffffffffff1673ffffffffffffffffffffffffffffffffffffffff1673ffffffffffffffffffffffffffffffffffffffff168152602001908152602001600020819080600181540180825580915050600190039060005260206000209060030201600090919091909150600082015181600001908161124a919061200a565b506020820151816001019081611260919061200a565b5060408201518160020160006101000a81548160ff0219169083151502179055505050505050565b60011515600460003373ffffffffffffffffffffffffffffffffffffffff1673ffffffffffffffffffffffffffffffffffffffff16815260200190815260200160002060030160009054906101000a900460ff1615151461131e576040517f08c379a000000000000000000000000000000000000000000000000000000000815260040161131590611d4c565b60405180910390fd5b6001600460003373ffffffffffffffffffffffffffffffffffffffff1673ffffffffffffffffffffffffffffffffffffffff16815260200190815260200160002060030160016101000a81548160ff021916908315150217905550565b604051806101000160405280606081526020016060815260200160008152602001600015158152602001600015158152602001600015158152602001600073ffffffffffffffffffffffffffffffffffffffff168152602001600060018111156113e8576113e7611560565b5b81525090565b6000604051905090565b600080fd5b600080fd5b600073ffffffffffffffffffffffffffffffffffffffff82169050919050565b600061142d82611402565b9050919050565b61143d81611422565b811461144857600080fd5b50565b60008135905061145a81611434565b92915050565b600060208284031215611476576114756113f8565b5b60006114848482850161144b565b91505092915050565b600081519050919050565b600082825260208201905092915050565b60005b838110156114c75780820151818401526020810190506114ac565b60008484015250505050565b6000601f19601f8301169050919050565b60006114ef8261148d565b6114f98185611498565b93506115098185602086016114a9565b611512816114d3565b840191505092915050565b6000819050919050565b6115308161151d565b82525050565b60008115159050919050565b61154b81611536565b82525050565b61155a81611422565b82525050565b7f4e487b7100000000000000000000000000000000000000000000000000000000600052602160045260246000fd5b600281106115a05761159f611560565b5b50565b60008190506115b18261158f565b919050565b60006115c1826115a3565b9050919050565b6115d1816115b6565b82525050565b60006101008301600083015184820360008601526115f582826114e4565b9150506020830151848203602086015261160f82826114e4565b91505060408301516116246040860182611527565b5060608301516116376060860182611542565b50608083015161164a6080860182611542565b5060a083015161165d60a0860182611542565b5060c083015161167060c0860182611551565b5060e083015161168360e08601826115c8565b508091505092915050565b600060208201905081810360008301526116a881846115d7565b905092915050565b600081519050919050565b600082825260208201905092915050565b6000819050602082019050919050565b600060608301600083015184820360008601526116f982826114e4565b9150506020830151848203602086015261171382826114e4565b91505060408301516117286040860182611542565b508091505092915050565b600061173f83836116dc565b905092915050565b6000602082019050919050565b600061175f826116b0565b61176981856116bb565b93508360208202850161177b856116cc565b8060005b858110156117b757848403895281516117988582611733565b94506117a383611747565b925060208a0199505060018101905061177f565b50829750879550505050505092915050565b600060208201905081810360008301526117e38184611754565b905092915050565b600081519050919050565b600082825260208201905092915050565b6000819050602082019050919050565b600061010083016000830151848203600086015261183582826114e4565b9150506020830151848203602086015261184f82826114e4565b91505060408301516118646040860182611527565b5060608301516118776060860182611542565b50608083015161188a6080860182611542565b5060a083015161189d60a0860182611542565b5060c08301516118b060c0860182611551565b5060e08301516118c360e08601826115c8565b508091505092915050565b60006118da8383611817565b905092915050565b6000602082019050919050565b60006118fa826117eb565b61190481856117f6565b93508360208202850161191685611807565b8060005b85811015611952578484038952815161193385826118ce565b945061193e836118e2565b925060208a0199505060018101905061191a565b50829750879550505050505092915050565b6000602082019050818103600083015261197e81846118ef565b905092915050565b600080fd5b600080fd5b7f4e487b7100000000000000000000000000000000000000000000000000000000600052604160045260246000fd5b6119c8826114d3565b810181811067ffffffffffffffff821117156119e7576119e6611990565b5b80604052505050565b60006119fa6113ee565b9050611a0682826119bf565b919050565b600067ffffffffffffffff821115611a2657611a25611990565b5b611a2f826114d3565b9050602081019050919050565b82818337600083830152505050565b6000611a5e611a5984611a0b565b6119f0565b905082815260208101848484011115611a7a57611a7961198b565b5b611a85848285611a3c565b509392505050565b600082601f830112611aa257611aa1611986565b5b8135611ab2848260208601611a4b565b91505092915050565b611ac48161151d565b8114611acf57600080fd5b50565b600081359050611ae181611abb565b92915050565b60028110611af457600080fd5b50565b600081359050611b0681611ae7565b92915050565b600080600080600060a08688031215611b2857611b276113f8565b5b600086013567ffffffffffffffff811115611b4657611b456113fd565b5b611b5288828901611a8d565b955050602086013567ffffffffffffffff811115611b7357611b726113fd565b5b611b7f88828901611a8d565b9450506040611b9088828901611ad2565b9350506060611ba18882890161144b565b9250506080611bb288828901611af7565b9150509295509295909350565b60008060408385031215611bd657611bd56113f8565b5b600083013567ffffffffffffffff811115611bf457611bf36113fd565b5b611c0085828601611a8d565b925050602083013567ffffffffffffffff811115611c2157611c206113fd565b5b611c2d85828601611a8d565b9150509250929050565b600082825260208201905092915050565b7f4f6e6c792061637469766520636f6d70616e792063616e206f6e626f6172642060008201527f656d706c6f796565000000000000000000000000000000000000000000000000602082015250565b6000611ca4602883611c37565b9150611caf82611c48565b604082019050919050565b60006020820190508181036000830152611cd381611c97565b9050919050565b7f4f6e6c792061637469766520656d706c6f796565732063616e2072657175657360008201527f74207061796d656e740000000000000000000000000000000000000000000000602082015250565b6000611d36602983611c37565b9150611d4182611cda565b604082019050919050565b60006020820190508181036000830152611d6581611d29565b9050919050565b7f4e487b7100000000000000000000000000000000000000000000000000000000600052602260045260246000fd5b60006002820490506001821680611db357607f821691505b602082108103611dc657611dc5611d6c565b5b50919050565b7f4f6e6c79207468652061646d696e2063616e2063616c6c20746869732066756e60008201527f6374696f6e000000000000000000000000000000000000000000000000000000602082015250565b6000611e28602583611c37565b9150611e3382611dcc565b604082019050919050565b60006020820190508181036000830152611e5781611e1b565b9050919050565b60008190508160005260206000209050919050565b60006020601f8301049050919050565b600082821b905092915050565b600060088302611ec07fffffffffffffffffffffffffffffffffffffffffffffffffffffffffffffffff82611e83565b611eca8683611e83565b95508019841693508086168417925050509392505050565b6000819050919050565b6000611f07611f02611efd8461151d565b611ee2565b61151d565b9050919050565b6000819050919050565b611f2183611eec565b611f35611f2d82611f0e565b848454611e90565b825550505050565b600090565b611f4a611f3d565b611f55818484611f18565b505050565b5b81811015611f7957611f6e600082611f42565b600181019050611f5b565b5050565b601f821115611fbe57611f8f81611e5e565b611f9884611e73565b81016020851015611fa7578190505b611fbb611fb385611e73565b830182611f5a565b50505b505050565b600082821c905092915050565b6000611fe160001984600802611fc3565b1980831691505092915050565b6000611ffa8383611fd0565b9150826002028217905092915050565b6120138261148d565b67ffffffffffffffff81111561202c5761202b611990565b5b6120368254611d9b565b612041828285611f7d565b600060209050601f8311600181146120745760008415612062578287015190505b61206c8582611fee565b8655506120d4565b601f19841661208286611e5e565b60005b828110156120aa57848901518255600182019150602085019450602081019050612085565b868310156120c757848901516120c3601f891682611fd0565b8355505b6001600288020188555050505b505050505050565b6120e581611422565b82525050565b6120f48161151d565b82525050565b600060408201905061210f60008301856120dc565b61211c60208301846120eb565b9392505050565b61212c81611536565b811461213757600080fd5b50565b60008151905061214981612123565b92915050565b600060208284031215612165576121646113f8565b5b60006121738482850161213a565b91505092915050565b7f43616e6e6f74206f6e62616f726420636f6d70616e7920747769636500000000600082015250565b60006121b2601c83611c37565b91506121bd8261217c565b602082019050919050565b600060208201905081810360008301526121e1816121a5565b905091905056fea26469706673582212207c3a6b091010a96d1cb6cc5d279991aa98f106a68df4bd96f5ee7d287ce0849964736f6c634300081c0033",
  "linkReferences": {},
  "deployedLinkReferences": {}
}