{
  "_format": "hh-sol-artifact-1",
  "contractName": "OnboardX",
  "sourceName": "contracts/OnboardX.sol",
  "abi": [
    {
      "inputs": [
        {
          "internalType": "address",
          "name": "_tokenAddress",
          "type": "address"
        }
      ],
      "stateMutability": "nonpayable",
      "type": "constructor"
    },
    {
      "inputs": [],
      "name": "confirmTaskCompletion",
      "outputs": [],
      "stateMutability": "nonpayable",
      "type": "function"
    },
    {
      "inputs": [],
      "name": "getEmployee",
      "outputs": [
        {
          "components": [
            {
              "internalType": "string",
              "name": "name",
              "type": "string"
            },
            {
              "internalType": "string",
              "name": "role",
              "type": "string"
            },
            {
              "internalType": "uint32",
              "name": "payment",
              "type": "uint32"
            },
            {
              "internalType": "bool",
              "name": "active",
              "type": "bool"
            },
            {
              "internalType": "bool",
              "name": "confirmed",
              "type": "bool"
            },
            {
              "internalType": "bool",
              "name": "releaseFunds",
              "type": "bool"
            },
            {
              "internalType": "address",
              "name": "employeeAddress",
              "type": "address"
            },
            {
              "internalType": "enum OnboardX.EmploymentStatus",
              "name": "status",
              "type": "uint8"
            }
          ],
          "internalType": "struct OnboardX.Employee",
          "name": "employeeDetails",
          "type": "tuple"
        }
      ],
      "stateMutability": "view",
      "type": "function"
    },
    {
      "inputs": [],
      "name": "getEmployees",
      "outputs": [
        {
          "components": [
            {
              "internalType": "string",
              "name": "name",
              "type": "string"
            },
            {
              "internalType": "string",
              "name": "role",
              "type": "string"
            },
            {
              "internalType": "uint32",
              "name": "payment",
              "type": "uint32"
            },
            {
              "internalType": "bool",
              "name": "active",
              "type": "bool"
            },
            {
              "internalType": "bool",
              "name": "confirmed",
              "type": "bool"
            },
            {
              "internalType": "bool",
              "name": "releaseFunds",
              "type": "bool"
            },
            {
              "internalType": "address",
              "name": "employeeAddress",
              "type": "address"
            },
            {
              "internalType": "enum OnboardX.EmploymentStatus",
              "name": "status",
              "type": "uint8"
            }
          ],
          "internalType": "struct OnboardX.Employee[]",
          "name": "employeesDetails",
          "type": "tuple[]"
        }
      ],
      "stateMutability": "view",
      "type": "function"
    },
    {
      "inputs": [
        {
          "internalType": "string",
          "name": "name",
          "type": "string"
        },
        {
          "internalType": "string",
          "name": "role",
          "type": "string"
        },
        {
          "internalType": "uint32",
          "name": "payment",
          "type": "uint32"
        },
        {
          "internalType": "address",
          "name": "employeeAddress",
          "type": "address"
        },
        {
          "internalType": "enum OnboardX.EmploymentStatus",
          "name": "status",
          "type": "uint8"
        }
      ],
      "name": "onboardEmployee",
      "outputs": [],
      "stateMutability": "nonpayable",
      "type": "function"
    },
    {
      "inputs": [
        {
          "internalType": "string",
          "name": "name",
          "type": "string"
        },
        {
          "internalType": "string",
          "name": "reg_no",
          "type": "string"
        }
      ],
      "name": "registerCompany",
      "outputs": [],
      "stateMutability": "nonpayable",
      "type": "function"
    },
    {
      "inputs": [
        {
          "internalType": "address",
          "name": "_employee",
          "type": "address"
        }
      ],
      "name": "releaseFunds",
      "outputs": [],
      "stateMutability": "nonpayable",
      "type": "function"
    },
    {
      "inputs": [],
      "name": "requestPayment",
      "outputs": [],
      "stateMutability": "nonpayable",
      "type": "function"
    }
  ],
  "bytecode": "0x608060405234801561001057600080fd5b50604051611ddc380380611ddc8339818101604052810190610032919061011c565b336000806101000a81548173ffffffffffffffffffffffffffffffffffffffff021916908373ffffffffffffffffffffffffffffffffffffffff16021790555080600160006101000a81548173ffffffffffffffffffffffffffffffffffffffff021916908373ffffffffffffffffffffffffffffffffffffffff16021790555050610149565b600080fd5b600073ffffffffffffffffffffffffffffffffffffffff82169050919050565b60006100e9826100be565b9050919050565b6100f9816100de565b811461010457600080fd5b50565b600081519050610116816100f0565b92915050565b600060208284031215610132576101316100b9565b5b600061014084828501610107565b91505092915050565b611c84806101586000396000f3fe608060405234801561001057600080fd5b506004361061007d5760003560e01c80634abefa361161005b5780634abefa36146100d857806363bdb94b146100f657806374448ba414610100578063c63189e51461011c5761007d565b8063192e7a7b146100825780631f2004a01461009e5780634132db8f146100ba575b600080fd5b61009c600480360381019061009791906110cd565b610126565b005b6100b860048036038101906100b391906112a1565b61021a565b005b6100c261062f565b6040516100cf919061153a565b60405180910390f35b6100e0610949565b6040516100ed91906116d5565b60405180910390f35b6100fe610ca8565b005b61011a600480360381019061011591906116f7565b610e39565b005b610124610eef565b005b60011515600260003373ffffffffffffffffffffffffffffffffffffffff1673ffffffffffffffffffffffffffffffffffffffff16815260200190815260200160002060020160009054906101000a900460ff161515146101bc576040517f08c379a00000000000000000000000000000000000000000000000000000000081526004016101b3906117f2565b60405180910390fd5b6001600460008373ffffffffffffffffffffffffffffffffffffffff1673ffffffffffffffffffffffffffffffffffffffff16815260200190815260200160002060020160066101000a81548160ff02191690831515021790555050565b60011515600260003373ffffffffffffffffffffffffffffffffffffffff1673ffffffffffffffffffffffffffffffffffffffff16815260200190815260200160002060020160009054906101000a900460ff161515146102b0576040517f08c379a00000000000000000000000000000000000000000000000000000000081526004016102a7906117f2565b60405180910390fd5b60006040518061010001604052808781526020018681526020018563ffffffff1681526020016001151581526020016000151581526020016000151581526020018473ffffffffffffffffffffffffffffffffffffffff1681526020018360028111156103205761031f61140c565b5b8152509050600360003373ffffffffffffffffffffffffffffffffffffffff1673ffffffffffffffffffffffffffffffffffffffff16815260200190815260200160002081908060018154018082558091505060019003906000526020600020906003020160009091909190915060008201518160000190816103a39190611a28565b5060208201518160010190816103b99190611a28565b5060408201518160020160006101000a81548163ffffffff021916908363ffffffff16021790555060608201518160020160046101000a81548160ff02191690831515021790555060808201518160020160056101000a81548160ff02191690831515021790555060a08201518160020160066101000a81548160ff02191690831515021790555060c08201518160020160076101000a81548173ffffffffffffffffffffffffffffffffffffffff021916908373ffffffffffffffffffffffffffffffffffffffff16021790555060e082015181600201601b6101000a81548160ff021916908360028111156104b3576104b261140c565b5b0217905550505080600460008573ffffffffffffffffffffffffffffffffffffffff1673ffffffffffffffffffffffffffffffffffffffff168152602001908152602001600020600082015181600001908161050f9190611a28565b5060208201518160010190816105259190611a28565b5060408201518160020160006101000a81548163ffffffff021916908363ffffffff16021790555060608201518160020160046101000a81548160ff02191690831515021790555060808201518160020160056101000a81548160ff02191690831515021790555060a08201518160020160066101000a81548160ff02191690831515021790555060c08201518160020160076101000a81548173ffffffffffffffffffffffffffffffffffffffff021916908373ffffffffffffffffffffffffffffffffffffffff16021790555060e082015181600201601b6101000a81548160ff0219169083600281111561061f5761061e61140c565b5b0217905550905050505050505050565b610637610fe2565b60011515600460003373ffffffffffffffffffffffffffffffffffffffff1673ffffffffffffffffffffffffffffffffffffffff16815260200190815260200160002060020160049054906101000a900460ff161515146106cd576040517f08c379a00000000000000000000000000000000000000000000000000000000081526004016106c490611b6c565b60405180910390fd5b600460003373ffffffffffffffffffffffffffffffffffffffff1673ffffffffffffffffffffffffffffffffffffffff1681526020019081526020016000206040518061010001604052908160008201805461072890611841565b80601f016020809104026020016040519081016040528092919081815260200182805461075490611841565b80156107a15780601f10610776576101008083540402835291602001916107a1565b820191906000526020600020905b81548152906001019060200180831161078457829003601f168201915b505050505081526020016001820180546107ba90611841565b80601f01602080910402602001604051908101604052809291908181526020018280546107e690611841565b80156108335780601f1061080857610100808354040283529160200191610833565b820191906000526020600020905b81548152906001019060200180831161081657829003601f168201915b505050505081526020016002820160009054906101000a900463ffffffff1663ffffffff1663ffffffff1681526020016002820160049054906101000a900460ff161515151581526020016002820160059054906101000a900460ff161515151581526020016002820160069054906101000a900460ff161515151581526020016002820160079054906101000a900473ffffffffffffffffffffffffffffffffffffffff1673ffffffffffffffffffffffffffffffffffffffff1673ffffffffffffffffffffffffffffffffffffffff16815260200160028201601b9054906101000a900460ff16600281111561092e5761092d61140c565b5b60028111156109405761093f61140c565b5b81525050905090565b606060011515600260003373ffffffffffffffffffffffffffffffffffffffff1673ffffffffffffffffffffffffffffffffffffffff16815260200190815260200160002060020160009054906101000a900460ff161515146109e1576040517f08c379a00000000000000000000000000000000000000000000000000000000081526004016109d8906117f2565b60405180910390fd5b600360003373ffffffffffffffffffffffffffffffffffffffff1673ffffffffffffffffffffffffffffffffffffffff168152602001908152602001600020805480602002602001604051908101604052809291908181526020016000905b82821015610c9f578382906000526020600020906003020160405180610100016040529081600082018054610a7490611841565b80601f0160208091040260200160405190810160405280929190818152602001828054610aa090611841565b8015610aed5780601f10610ac257610100808354040283529160200191610aed565b820191906000526020600020905b815481529060010190602001808311610ad057829003601f168201915b50505050508152602001600182018054610b0690611841565b80601f0160208091040260200160405190810160405280929190818152602001828054610b3290611841565b8015610b7f5780601f10610b5457610100808354040283529160200191610b7f565b820191906000526020600020905b815481529060010190602001808311610b6257829003601f168201915b505050505081526020016002820160009054906101000a900463ffffffff1663ffffffff1663ffffffff1681526020016002820160049054906101000a900460ff161515151581526020016002820160059054906101000a900460ff161515151581526020016002820160069054906101000a900460ff161515151581526020016002820160079054906101000a900473ffffffffffffffffffffffffffffffffffffffff1673ffffffffffffffffffffffffffffffffffffffff1673ffffffffffffffffffffffffffffffffffffffff16815260200160028201601b9054906101000a900460ff166002811115610c7a57610c7961140c565b5b6002811115610c8c57610c8b61140c565b5b8152505081526020019060010190610a40565b50505050905090565b60011515600460003373ffffffffffffffffffffffffffffffffffffffff1673ffffffffffffffffffffffffffffffffffffffff16815260200190815260200160002060020160049054906101000a900460ff16151514610d3e576040517f08c379a0000000000000000000000000000000000000000000000000000000008152600401610d3590611b6c565b60405180910390fd5b6000600460003373ffffffffffffffffffffffffffffffffffffffff1673ffffffffffffffffffffffffffffffffffffffff16815260200190815260200160002060020160009054906101000a900463ffffffff169050600160009054906101000a900473ffffffffffffffffffffffffffffffffffffffff1673ffffffffffffffffffffffffffffffffffffffff1663a9059cbb33836040518363ffffffff1660e01b8152600401610df2929190611bcc565b6020604051808303816000875af1158015610e11573d6000803e3d6000fd5b505050506040513d601f19601f82011682018060405250810190610e359190611c21565b5050565b6000604051806060016040528084815260200183815260200160011515815250905080600260003373ffffffffffffffffffffffffffffffffffffffff1673ffffffffffffffffffffffffffffffffffffffff1681526020019081526020016000206000820151816000019081610eb09190611a28565b506020820151816001019081610ec69190611a28565b5060408201518160020160006101000a81548160ff021916908315150217905550905050505050565b60011515600460003373ffffffffffffffffffffffffffffffffffffffff1673ffffffffffffffffffffffffffffffffffffffff16815260200190815260200160002060020160049054906101000a900460ff16151514610f85576040517f08c379a0000000000000000000000000000000000000000000000000000000008152600401610f7c90611b6c565b60405180910390fd5b6001600460003373ffffffffffffffffffffffffffffffffffffffff1673ffffffffffffffffffffffffffffffffffffffff16815260200190815260200160002060020160056101000a81548160ff021916908315150217905550565b6040518061010001604052806060815260200160608152602001600063ffffffff168152602001600015158152602001600015158152602001600015158152602001600073ffffffffffffffffffffffffffffffffffffffff168152602001600060028111156110555761105461140c565b5b81525090565b6000604051905090565b600080fd5b600080fd5b600073ffffffffffffffffffffffffffffffffffffffff82169050919050565b600061109a8261106f565b9050919050565b6110aa8161108f565b81146110b557600080fd5b50565b6000813590506110c7816110a1565b92915050565b6000602082840312156110e3576110e2611065565b5b60006110f1848285016110b8565b91505092915050565b600080fd5b600080fd5b6000601f19601f8301169050919050565b7f4e487b7100000000000000000000000000000000000000000000000000000000600052604160045260246000fd5b61114d82611104565b810181811067ffffffffffffffff8211171561116c5761116b611115565b5b80604052505050565b600061117f61105b565b905061118b8282611144565b919050565b600067ffffffffffffffff8211156111ab576111aa611115565b5b6111b482611104565b9050602081019050919050565b82818337600083830152505050565b60006111e36111de84611190565b611175565b9050828152602081018484840111156111ff576111fe6110ff565b5b61120a8482856111c1565b509392505050565b600082601f830112611227576112266110fa565b5b81356112378482602086016111d0565b91505092915050565b600063ffffffff82169050919050565b61125981611240565b811461126457600080fd5b50565b60008135905061127681611250565b92915050565b6003811061128957600080fd5b50565b60008135905061129b8161127c565b92915050565b600080600080600060a086880312156112bd576112bc611065565b5b600086013567ffffffffffffffff8111156112db576112da61106a565b5b6112e788828901611212565b955050602086013567ffffffffffffffff8111156113085761130761106a565b5b61131488828901611212565b945050604061132588828901611267565b9350506060611336888289016110b8565b92505060806113478882890161128c565b9150509295509295909350565b600081519050919050565b600082825260208201905092915050565b60005b8381101561138e578082015181840152602081019050611373565b60008484015250505050565b60006113a582611354565b6113af818561135f565b93506113bf818560208601611370565b6113c881611104565b840191505092915050565b6113dc81611240565b82525050565b60008115159050919050565b6113f7816113e2565b82525050565b6114068161108f565b82525050565b7f4e487b7100000000000000000000000000000000000000000000000000000000600052602160045260246000fd5b6003811061144c5761144b61140c565b5b50565b600081905061145d8261143b565b919050565b600061146d8261144f565b9050919050565b61147d81611462565b82525050565b60006101008301600083015184820360008601526114a1828261139a565b915050602083015184820360208601526114bb828261139a565b91505060408301516114d060408601826113d3565b5060608301516114e360608601826113ee565b5060808301516114f660808601826113ee565b5060a083015161150960a08601826113ee565b5060c083015161151c60c08601826113fd565b5060e083015161152f60e0860182611474565b508091505092915050565b600060208201905081810360008301526115548184611483565b905092915050565b600081519050919050565b600082825260208201905092915050565b6000819050602082019050919050565b60006101008301600083015184820360008601526115a6828261139a565b915050602083015184820360208601526115c0828261139a565b91505060408301516115d560408601826113d3565b5060608301516115e860608601826113ee565b5060808301516115fb60808601826113ee565b5060a083015161160e60a08601826113ee565b5060c083015161162160c08601826113fd565b5060e083015161163460e0860182611474565b508091505092915050565b600061164b8383611588565b905092915050565b6000602082019050919050565b600061166b8261155c565b6116758185611567565b93508360208202850161168785611578565b8060005b858110156116c357848403895281516116a4858261163f565b94506116af83611653565b925060208a0199505060018101905061168b565b50829750879550505050505092915050565b600060208201905081810360008301526116ef8184611660565b905092915050565b6000806040838503121561170e5761170d611065565b5b600083013567ffffffffffffffff81111561172c5761172b61106a565b5b61173885828601611212565b925050602083013567ffffffffffffffff8111156117595761175861106a565b5b61176585828601611212565b9150509250929050565b600082825260208201905092915050565b7f4f6e6c792061637469766520636f6d70616e792063616e206f6e626f6172642060008201527f656d706c6f796565000000000000000000000000000000000000000000000000602082015250565b60006117dc60288361176f565b91506117e782611780565b604082019050919050565b6000602082019050818103600083015261180b816117cf565b9050919050565b7f4e487b7100000000000000000000000000000000000000000000000000000000600052602260045260246000fd5b6000600282049050600182168061185957607f821691505b60208210810361186c5761186b611812565b5b50919050565b60008190508160005260206000209050919050565b60006020601f8301049050919050565b600082821b905092915050565b6000600883026118d47fffffffffffffffffffffffffffffffffffffffffffffffffffffffffffffffff82611897565b6118de8683611897565b95508019841693508086168417925050509392505050565b6000819050919050565b6000819050919050565b600061192561192061191b846118f6565b611900565b6118f6565b9050919050565b6000819050919050565b61193f8361190a565b61195361194b8261192c565b8484546118a4565b825550505050565b600090565b61196861195b565b611973818484611936565b505050565b5b818110156119975761198c600082611960565b600181019050611979565b5050565b601f8211156119dc576119ad81611872565b6119b684611887565b810160208510156119c5578190505b6119d96119d185611887565b830182611978565b50505b505050565b600082821c905092915050565b60006119ff600019846008026119e1565b1980831691505092915050565b6000611a1883836119ee565b9150826002028217905092915050565b611a3182611354565b67ffffffffffffffff811115611a4a57611a49611115565b5b611a548254611841565b611a5f82828561199b565b600060209050601f831160018114611a925760008415611a80578287015190505b611a8a8582611a0c565b865550611af2565b601f198416611aa086611872565b60005b82811015611ac857848901518255600182019150602085019450602081019050611aa3565b86831015611ae55784890151611ae1601f8916826119ee565b8355505b6001600288020188555050505b505050505050565b7f4f6e6c792061637469766520656d706c6f796565732063616e2072657175657360008201527f74207061796d656e740000000000000000000000000000000000000000000000602082015250565b6000611b5660298361176f565b9150611b6182611afa565b604082019050919050565b60006020820190508181036000830152611b8581611b49565b9050919050565b611b958161108f565b82525050565b6000611bb6611bb1611bac84611240565b611900565b6118f6565b9050919050565b611bc681611b9b565b82525050565b6000604082019050611be16000830185611b8c565b611bee6020830184611bbd565b9392505050565b611bfe816113e2565b8114611c0957600080fd5b50565b600081519050611c1b81611bf5565b92915050565b600060208284031215611c3757611c36611065565b5b6000611c4584828501611c0c565b9150509291505056fea26469706673582212205330b786655511df25d9a37757c290492ab31758cc44bb51490d47338574895f64736f6c634300081c0033",
  "linkReferences": {},
  "deployedLinkReferences": {}
}